:020000040800F2
:100000006006002099010008A1010008A301000872
:10001000A5010008A7010008A901000800000000D0
:10002000000000000000000000000000AB0100081C
:10003000AD01000800000000AF010008B101000898
:10004000B3010008B3010008B3010008B3010008C0
:10005000B3010008B3010008B3010008B3010008B0
:10006000B3010008B3010008B3010008B3010008A0
:10007000B3010008B3010008B3010008B301000890
:10008000B3010008B3010008B3010008B301000880
:10009000B3010008B3010008B3010008B301000870
:1000A000B3010008B3010008B3010008B301000860
:1000B000B3010008B3010008B3010008B301000850
:1000C000B3010008B3010008B3010008B301000840
:1000D000B3010008B3010008B3010008B301000830
:1000E000B3010008B3010008B301000800F002F8F2
:1000F00000F042F814A696E8000CB244B344DA4586
:1001000001D100F039F8BAE80F000FA696E83000E8
:10011000A5EB040504EB0607AAEB0704A7F101070A
:100120004FEA15154FEA3414A4F10104AC4201D38F
:1001300000F022F813F0010F18BFFB1A43F001037F
:1001400000F001F8DBE71847040600001406000081
:10015000704700000023002400250026103A28BF25
:1001600078C1FBD8520728BF30C148BF0B60704729
:100170001FB51FBD10B510BD00F031F81146FFF7D7
:10018000F7FF00F085F900F04FF803B4FFF7F2FF36
:1001900003BC00F057F800000948804709480047B1
:1001A000FEE7FEE7FEE7FEE7FEE7FEE7FEE7FEE727
:1001B000FEE7FEE704480549054A064B7047000084
:1001C00029040008ED0000086000002060060020FF
:1001D000600200206002002070477047704775463B
:1001E00000F02CF8AE4605006946534620F00700A3
:1001F000854618B020B5FFF7DDFFBDE820404FF081
:1002000000064FF000074FF000084FF0000BAC461F
:10021000ACE8C009ACE8C009ACE8C009ACE8C0096A
:1002200021F007018D46704710B50446AFF30080FA
:100230002046BDE81040FFF7A8BF00000048704707
:100240000000002001491820ABBEFEE72600020096
:100250007047000082B00190FFE7019890B1FFE77E
:1002600000200090FFE70098B0F5FA5F06DAFFE79C
:1002700000BFFFE7009801300090F4E701980138D3
:100280000190EAE702B0704781B00090009840F614
:100290000001C4F20101884209D1FFE741F21801CF
:1002A000C4F20201086840F00400086023E00098EE
:1002B00040F60041C4F20101884209D1FFE741F252
:1002C0001801C4F20201086840F00800086011E05B
:1002D000009841F20001C4F20101884209D1FFE710
:1002E00041F21801C4F20201086840F010000860F1
:1002F000FFE7FFE7FFE701B07047000080B500F0BF
:1003000001F880BD84B000200390029041F200010A
:10031000C4F20201086840F480300860FFE741F24F
:100320000000C4F20200006800F40030029003985C
:1003300001300390FFE702990020019039B9FFE7EF
:100340000398B0F5A06018BF01200190FFE7019865
:10035000C0070028E3D1FFE741F20000C4F2020029
:1003600000688003002803D5FFE70120029002E027
:1003700000200290FFE70298012851D1FFE742F2E6
:100380000001C4F20201086840F01000086008682B
:1003900020F007000860086840F00200086041F2A1
:1003A0000401C4F20201009108680860086808604E
:1003B000086840F480600860086820F47C100860D9
:1003C000086840F4E810086041F20001C4F202013C
:1003D000086840F080700860FFE741F20000C4F256
:1003E000020000688001002801D4FFE7F5E741F230
:1003F0000401C4F20201086820F0030008600868E4
:1004000040F002000860FFE741F20400C4F202007D
:10041000006800F00C00082801D0FFE7F4E700E0D6
:10042000FFE704B07047000080B541F20002C4F25B
:100430000202106840F00100106041F20401C4F2B1
:10044000020108680023CFF6FF0318400860106817
:100450004FF6FF73CFF6F66318401060106820F473
:1004600080201060086820F4FE00086041F2080156
:10047000C4F202014FF41F000860FFF73FFF4EF681
:100480000851CEF200014FF00060086080BD00000E
:1004900080B586B000210291059140F60000C4F2BB
:1004A000010001900222009200F0CAF80198029A1D
:1004B000114600F003F9009A0198012100F0C0F8FC
:1004C0000198029A114600F0F9F8009A0198114635
:1004D00000F0B6F80198029A114600F0EFF8009A81
:1004E0000198032100F0ACF80198029A114600F03F
:1004F000E5F8009A0198042100F0A2F80198029A08
:10050000114600F0DBF8009A0198052100F098F8F8
:100510000198029A114600F0D1F8009A019806213C
:1005200000F08EF80198029A114600F0C7F8009A80
:100530000198072100F084F80198029A114600F012
:10054000BDF8009A0198082100F07AF80198029A03
:10055000114600F0B3F8009A0198092100F070F8F4
:100560000198029A114600F0A9F8009A01980A2110
:1005700000F066F80198029A114600F09FF8009A80
:1005800001980B2100F05CF80198029A114600F0E6
:1005900095F8009A01980C2100F052F80198029AFF
:1005A000114600F08BF8009A01980D2100F048F8F0
:1005B0000198029A114600F081F8009A01980E21E4
:1005C00000F03EF80198029A114600F077F8009A80
:1005D00001980F2100F034F80198029A114600F0BA
:1005E0006DF8029804908DF80F00FFE7049940F62B
:1005F0000000C4F2010000F07BF89DF80F0020B16C
:10060000FFE704984008049004E00498400001309B
:100610000490FFE704984FF6FF71884204D1FFE78A
:1006200001208DF80F0007E0049820B9FFE70020B3
:100630008DF80F00FFE7FFE70A20FFF70BFED5E775
:1006400080B584B003908DF80B1001920398FFF7EA
:100650001BFE9DF80B00072815DCFFE79DF80B003B
:1006600081000F2000FA01F20399086890430860A6
:1006700001989DF80B10890000FA01F203990868AF
:100680001043086018E09DF80B006FF01F0101EBAC
:1006900080020F2000FA02F3039A506898435060DA
:1006A00001989DF80B2001EB820100FA01F20399F9
:1006B000486810434860FFE704B080BD82B00190F5
:1006C0008DF803108DF802209DF8020038B9FFE77D
:1006D0009DF80310012088400199486106E09DF8CB
:1006E00003100120884001990861FFE702B07047BC
:1006F00080B584B003900291BDF8080002900020FC
:100700008DF80700FFE79DF807000F281CDCFFE7C6
:1007100002989DF80710C840C00738B9FFE7039852
:100720009DF807100022FFF7C9FF06E003989DF827
:1007300007100122FFF7C2FFFFE7FFE79DF8070060
:1007400001308DF80700DEE704B080BD5C070008CB
:0C075000000000206006000054010008BA
:04000005080000ED02
:00000001FF
