:020000040800F2
:1000000088060020B5010008410F0008450C0008D3
:100010003D0F0008BD020008550F00080000000059
:10002000000000000000000000000000490F000870
:10003000C102000800000000450F00084D0F000835
:10004000CF010008CF010008CF010008CF01000850
:10005000CF010008CF010008CF010008CF01000840
:10006000CF010008CF010008CF010008CF01000830
:10007000CF010008CF010008CF010008CF01000820
:10008000CF010008CF010008CF010008CF01000810
:10009000CF010008CF010008CF010008CF01000800
:1000A000CF010008CF010008CF010008CF010008F0
:1000B000CF010008CF010008CF010008CF010008E0
:1000C000CF010008CF010008CF010008CF010008D0
:1000D000CF010008CF010008CF010008CF010008C0
:1000E000CF010008CF010008CF01000800F002F89E
:1000F00000F050F814A696E8000CB244B344DA4578
:1001000001D100F047F8BAE80F000FA696E83000DA
:10011000A5EB040504EB0607AAEB0704A7F101070A
:100120004FEA15154FEA3414A4F10104AC4201D38F
:1001300000F030F813F0010F18BFFB1A43F0010371
:1001400000F001F8DBE71847A00F0000C00F000027
:10015000103A24BF78C878C1FAD8520724BF30C8F3
:1001600030C144BF04680C60704700007047000055
:100170000023002400250026103A28BF78C1FBD8B0
:10018000520728BF30C148BF0B6070471FB51FBD65
:1001900010B510BD00F058F81146FFF7F7FF00F05A
:1001A000DBFE00F076F803B4FFF7F2FF03BC00F0CB
:1001B0007DF800000948804709480047FEE7FEE750
:1001C000FEE7FEE7FEE7FEE7FEE7FEE7FEE7FEE707
:1001D00004480549054A064B70470000510F0008C6
:1001E000ED0000088800002088060020880200201A
:1001F000880200204FF0000200B513469446964650
:10020000203922BFA0E80C50A0E80C50B1F1200129
:10021000BFF4F7AF090728BFA0E80C5048BF0CC0D7
:100220005DF804EB890028BF40F8042B08BF704735
:1002300048BF20F8022B11F0804F18BF00F8012BA7
:100240007047704770477047754600F02BF8AE4610
:1002500005006946534620F00700854618B020B5D2
:10026000FFF7B6FFBDE820404FF000064FF0000753
:100270004FF000084FF0000BAC46ACE8C009ACE80A
:10028000C009ACE8C009ACE8C00921F007018D46FF
:10029000704710B50446AFF300802046BDE810401B
:1002A000FFF781BF00487047200000200149182057
:1002B000ABBEFEE72600020070470000FEE700002C
:1002C00070470000B0B5044600F01EF9054640F244
:1002D0000000C2F200000078611C18BF044400BF97
:1002E00000F012F9401BA042FAD3B0BD2DE9F04F47
:1002F00082B00E68002E00F0FD8041F20042C4F290
:100300000102042340F2004E904208BF03234FF63F
:10031000FF7CC4F2010E009300240123C1F2100CF3
:100320004FF0000A4FF000094BE000BF41F200021D
:10033000C4F20102009F904208BF022704F00C03A0
:100340000F229A402BEA020207FA03F34FEA9A05BA
:100350001A4346F825204E6840F20C45F202DEF8BA
:10036000082054BF22EA080242EA0802C4F201054A
:10037000CEF808202A68B30254BF22EA080242EAF3
:1003800008022A60B303DEF8042054BF22EA080200
:1003900042EA0802F303CEF80420DEF800204FF012
:1003A000010354BF22EA080242EA0802CEF8002004
:1003B0000E680AF1010A36FA0AF204F1040400F0A8
:1003C000998003FA0AFB16EA0B08F1D04E686645DD
:1003D00012DC122E56D8DFE806F0350B4D49555584
:1003E000555555555555555555555545510000BF11
:1003F000D1F80C9046E000BF4FF6FF72C1F2210227
:1004000096420FDC0022C1F2110296421AD000225D
:10041000C1F21202964215D00022C1F22102964288
:1004200010D02FE00022C1F2220296420AD0002210
:10043000C1F23102964205D00022C1F23202964248
:1004400020D100BF8A684AB1012A14BFC0F814B095
:10045000C0F810B04FF0080914E000BF4FF00409D5
:1004600010E000BFCA6802F104090BE04FF0000978
:1004700008E000BFCA6802F1080903E0CA6802F197
:100480000C0900BF02462646B8F5807F24BF04321F
:10049000203E17680F25B54027EA050509FA06F63C
:1004A00035431560CA79D2067FF582AF41F2180351
:1004B000C4F202031A68AEF57E7642F001021A60B9
:1004C0001A6802F001020192019A2AF0030256F81A
:1004D00002B040F60002C4F20102904208D040F699
:1004E0000042C4F2010290427FF420AF012725E7C9
:1004F000002723E702B0BDE8F08F0000002A08BF04
:10050000090401617047000040F28000C2F200005F
:100510000068704740F2000040F28001C2F2000023
:10052000C2F2000100780A681044086070470000B9
:1005300080B542F20000C4F20200016841F01001EF
:100540000160032000F07AF80F2000F005F800F0B9
:1005500027F8002080BD000070B540F20006C2F20E
:10056000000640F21C013278C2F200014FF47A73A7
:100570000968B3FBF2F20446B1FBF2F1084600F061
:100580004BFB0F2C4FF0010508D838B94FF0FF3066
:1005900021460022002500F025F87460284670BD31
:1005A00082B041F21800C4F202000168022241F058
:1005B00001010160016801F00101019101994168A7
:1005C00041F080514160406800F0805000900098F8
:1005D0000420C4F20100016862F31A61016002B0F4
:1005E0007047000010B54EF60C5CCEF2000CDCF843
:1005F0000030C3F3022E8EF00704042C28BF04241D
:10060000BEF103034FF0FF3E0EFA04F438BF00239F
:10061000A14399400EFA03F39A43114300F00F02ED
:1006200000F160430901043A03F564436244002881
:1006300048BF02F10C03197010BD00004EF60C51BA
:10064000CEF200010A684FF6FF031A4060F30A2257
:1006500042F0806040F0FD7008607047002804BFE1
:10066000012070472DE9F04381B042F20008C4F246
:1006700002080446D8F800000D4600F00700814249
:100680000CD9D8F8000020F007002843C8F8000073
:10069000D8F8000000F00700A8426CD1206841F2B1
:1006A00004098107C4F2020917D5410705D5D9F815
:1006B000001041F4E061C9F80010010705D5D9F830
:1006C000001041F46051C9F80010D9F80010A26878
:1006D00021F0F0011143C9F80010C00742D1D8F849
:1006E000000000F0070085420CD2D8F8000020F08E
:1006F00007002843C8F80000D8F8000000F0070001
:10070000A84238D12068410707D5D9F80010E2681F
:1007100021F4E0611143C9F80010000708D5D9F8A9
:100720000000216920F4605040EAC100C9F80000CF
:10073000D9F8002002F00C00082841F20020C0F295
:100740007A004DD141F2D803C2F38341C0F60003D1
:10075000595CD20338D440F60010C0F23D00484343
:100760003EE000BF606859F8041C022808D0012848
:1007700026D1890306D4012001B0BDE8F08300BF73
:100780008901F8D5D9F8001021F003010843C9F810
:100790000000FFF7B9FE064641F28837D9F800009D
:1007A000616800F00C00B0EB810F98D0FFF7ACFE51
:1007B000801BB842F2D9032001B0BDE8F08300BF2E
:1007C0008907D8D5DEE700BFD9F8002041F2D6036B
:1007D000C2F34042C0F600039A5C4843B0FBF2F01B
:1007E000D9F8001041F2C602C1F30311C0F60002AD
:1007F000515C40F21C0220FA01F140F20400C2F206
:1008000000000068C2F200021160FFF7A5FE0020A0
:1008100001B0BDE8F0830000002804BF012070474C
:100820002DE9F04182B00446007841F20006C0078D
:10083000C4F202060CD0706800F00C00042840F0EE
:1008400081803068800303D56068002800F046810D
:10085000207880071BD5706810F00C0F09D07068E5
:1008600000F00C00082840F087807068C00300F199
:1008700083803068800703D52069012840F02E81ED
:100880003068616920F0F80040EAC10030602078EB
:10089000000713D4207840072CD4E569002D00F020
:1008A0001881706800F00C00082840F0A780012D26
:1008B00040F00481012002B0BDE8F081A069002869
:1008C00000F084800020C4F242200121C0F880148E
:1008D000FFF71AFE054600BF706A800700F1B2807C
:1008E000FFF712FE401B0228F6D9032002B0BDE834
:1008F000F08100BFF0695FEAC00808D4F06940F0F9
:100900008050F061F06900F080500090009847F24C
:100910000007C4F200073868C00549D4386840F4BD
:1009200080703860FFF7F0FD054600BF3868C005ED
:100930003ED4FFF7E9FD401B6428F7D9032002B03D
:10094000BDE8F081706800F00C00082803D17068E1
:10095000C0033FF576AF61683068002900F00C8174
:10096000B1F5A02F00F00081B1F5803F40F01A8171
:1009700040F480301CE100BF2069002840F20000F4
:10098000C4F2422000F0888001210160FFF7BCFD25
:10099000054600BF306880073FF572AFFFF7B4FD32
:1009A000401B0228F6D9032002B0BDE8F08100BF49
:1009B000E168306A002900F09D80052900F09280EE
:1009C000012940F0AF8040F00100B1E00020C4F206
:1009D00042200021C0F88014FFF796FD054600BFB5
:1009E000706A80077FF556AFFFF78EFD401B022827
:1009F000F6D9032002B0BDE8F08100BF0027C4F2A1
:100A0000422700203866FFF77FFD022D05460DD1F5
:100A10003068800140F1DE80FFF776FD401B022840
:100A20004FF00300F4D902B0BDE8F08130688001D6
:100A30004FD5FFF769FD401B02284FF00300F5D9A1
:100A4000F1E700BF40F21C00C2F20000006844F66B
:100A5000D351C1F26201A0FB0101480A019000BF1D
:100A600000BF0198411E002801913FF413AF00BF61
:100A70000198411E002801913FF40CAF00BF01987E
:100A8000411E002801913FF405AF00BF0198411EAF
:100A900000280191E4D1FDE600210160FFF734FD5B
:100AA000054600BF306880077FF5F1AEFFF72CFDEB
:100AB000401B02284FF00300F4D9B4E77068216AA4
:100AC00000F480328A4209D1616A00F470108842D1
:100AD00004D1002002B0BDE8F08100BF012002B0C7
:100AE000BDE8F08140F004003062306A40F001005F
:100AF0001EE000BF20F001003062306A20F00400E8
:100B00003062FFF701FD054641F28837306A800701
:100B100020D5FFF7F9FC401BB8424FF00300F5D990
:100B200081E700BF20F001003062306A20F004004D
:100B30003062FFF7E9FC054641F28837306A8007EA
:100B400008D4FFF7E1FC401BB842F7D9032002B0FC
:100B5000BDE8F081B8F1000F3FF59FAEF06920F0DD
:100B60008050F06199E600BF40F48020306030682A
:100B700040F480301CE000BF20F4803030603068EA
:100B800020F480203060FFF7BFFC0546306880030A
:100B90007FF55EAEFFF7B8FC401B64284FF0030002
:100BA000F4D940E720F480303060306820F48020B1
:100BB0003060FFF7A9FC0546306880033FF548AE7A
:100BC000FFF7A2FC401B6428F6D9032002B0BDE861
:100BD000F08100BF206AB0F5803F05D17168A2683E
:100BE00021F40031114371607168626A21F474115B
:100BF00011430843706001203866FFF785FC044606
:100C0000306880013FF565AFFFF77EFC001B0228CE
:100C10004FF00300F4D906E7411E0020B0EB116F3E
:100C20001CBF012070474EF21002CEF2000251604C
:100C30004EF62351CEF20001F0230B700721906095
:100C400011607047FEE7000070B540F20806C2F27E
:100C500000060546305C40F60004C4F20104C209F7
:100C600020468021FFF74AFC204620210122FFF781
:100C700045FC0120FFF726FB204620210022FFF73C
:100C80003DFC0120FFF71EFB705D8021C0F3801248
:100C90002046FFF733FC204620210122FFF72EFCDF
:100CA0000120FFF70FFB204620210022FFF726FC42
:100CB0000120FFF707FB705D8021C0F34012204642
:100CC000FFF71CFC204620210122FFF717FC012022
:100CD000FFF7F8FA204620210022FFF70FFC012041
:100CE000FFF7F0FA705D8021C0F300122046FFF795
:100CF00005FC204620210122FFF700FC0120FFF720
:100D0000E1FA204620210022FFF7F8FB0120FFF73F
:100D1000D9FA705D8021C0F3C0022046FFF7EEFBD8
:100D2000204620210122FFF7E9FB0120FFF7CAFA44
:100D3000204620210022FFF7E1FB0120FFF7C2FA45
:100D4000705D8021C0F380022046FFF7D7FB20466C
:100D500020210122FFF7D2FB0120FFF7B3FA204642
:100D600020210022FFF7CAFB0120FFF7ABFA705DDC
:100D70008021C0F340022046FFF7C0FB204620211F
:100D80000122FFF7BBFB0120FFF79CFA2046202140
:100D90000022FFF7B3FB0120FFF794FA705D80217A
:100DA00000F001022046FFF7A9FB20462021012286
:100DB000FFF7A4FB0120FFF785FA2046202100223F
:100DC000FFF79CFB0120FFF77DFA705D8021C209CF
:100DD0002046FFF793FB204640210122FFF78EFBC0
:100DE0000120FFF76FFA204640210022FFF786FB23
:100DF0000120FFF767FA705D8021C0F38012204662
:100E0000FFF77CFB204640210122FFF777FB012002
:100E1000FFF758FA204640210022FFF76FFB012020
:100E2000FFF750FA705D8021C0F340122046FFF7B3
:100E300065FB204640210122FFF760FB0120FFF700
:100E400041FA204640210022FFF758FB0120FFF71E
:100E500039FA705D8021C0F300122046FFF74EFB87
:100E6000204640210122FFF749FB0120FFF72AFA23
:100E7000204640210022FFF741FB0120FFF722FA24
:100E8000705D8021C0F3C0022046FFF737FB20468B
:100E900040210122FFF732FB0120FFF713FA204621
:100EA00040210022FFF72AFB0120FFF70BFA705DBB
:100EB0008021C0F380022046FFF720FB204640211E
:100EC0000122FFF71BFB0120FFF7FCF92046402120
:100ED0000022FFF713FB0120FFF7F4F9705D80217A
:100EE000C0F340022046FFF709FB204640210122C3
:100EF000FFF704FB0120FFF7E5F92046402100221F
:100F0000FFF7FCFA0120FFF7DDF9705D802100F0AA
:100F100001022046FFF7F2FA204640210122FFF7A6
:100F2000EDFA0120FFF7CEF9204640210022FFF71D
:100F3000E5FA0120BDE87040FFF7C4B9FEE7000004
:100F4000FEE700007047000070470000FFF7E2BABC
:100F500070470000FEE7000090B0FFF7E9FA06AC2A
:100F6000201D2421FFF746F90220069001200A9057
:100F700010200B90002520460D95FFF74DFC28B161
:100F8000EFF3108072B600BFFEE700BF0F20CDE97F
:100F9000010501A80021CDE903550595FFF75EFB8A
:100FA00020B1EFF3108072B6FEE700BF002541F2DA
:100FB0001800CDE90855CDE90655C4F202000168D4
:100FC00040F6000441F0040101600068C4F201042D
:100FD00000F00400019001982046E0210022E02664
:100FE000FFF78CFA0120CDE907050220099006A938
:100FF00020460696FFF77AF96420FFF763F90E2082
:10100000FFF722FE4FF47A70FFF75CF90C20FFF730
:101010001BFE4FF47A70FFF755F90F20FFF714FE0F
:101020004FF47A70FFF74EF91020FFF70DFE4FF4E2
:101030007A70FFF747F90020FFF706FE4FF47A7049
:10104000FFF740F90120FFF7FFFD4FF47A70FFF73B
:1010500039F90220FFF7F8FD4FF47A70FFF732F903
:101060000320FFF7F1FD4FF47A70FFF72BF904200E
:10107000FFF7EAFD4FF47A70FFF724F90520FFF738
:10108000E3FD4FF47A70FFF71DF90620FFF7DCFD52
:101090004FF47A70FFF716F90720FFF7D5FD4FF4EC
:1010A0007A70FFF70FF90820FFF7CEFD4FF47A7042
:1010B000FFF708F90920FFF7C7FD4FF47A70FFF733
:1010C00001F900BFFEE7000000000000000001027F
:1010D00003040607080901020203040506070809BC
:1010E0000A0B0C0D0E0F1010081100080000002054
:1010F00020000000500100082811000820000020F6
:1011000068060000700100080100000010000000E7
:10111000A0E79183C68A88A7808284B8989CC4F887
:0811200094FF000000127A00A8
:04000005080000ED02
:00000001FF
