:020000040800F2
:10000000C8060020B50100080D190008450C0008BD
:1000100009190008BD020008091A000800000000C4
:10002000000000000000000000000000151900089A
:10003000C10200080000000011190008011A0008A0
:10004000CF010008CF010008CF010008CF01000850
:10005000CF010008CF010008CF010008CF01000840
:10006000CF010008CF010008CF010008CF01000830
:10007000CF010008CF010008CF010008CF01000820
:10008000CF010008CF010008CF010008CF01000810
:10009000CF010008CF010008CF010008CF01000800
:1000A000CF010008CF010008CF010008CF010008F0
:1000B000CF010008CF010008CF010008CF010008E0
:1000C000CF010008CF010008CF010008CF010008D0
:1000D000CF010008CF010008CF010008CF010008C0
:1000E000CF010008CF010008CF01000800F002F89E
:1000F00000F050F814A696E8000CB244B344DA4578
:1001000001D100F047F8BAE80F000FA696E83000DA
:10011000A5EB040504EB0607AAEB0704A7F101070A
:100120004FEA15154FEA3414A4F10104AC4201D38F
:1001300000F030F813F0010F18BFFB1A43F0010371
:1001400000F001F8DBE71847241A0000441A000009
:10015000103A24BF78C878C1FAD8520724BF30C8F3
:1001600030C144BF04680C60704700007047000055
:100170000023002400250026103A28BF78C1FBD8B0
:10018000520728BF30C148BF0B6070471FB51FBD65
:1001900010B510BD00F058F81146FFF7F7FF01F059
:1001A00035FC00F076F803B4FFF7F2FF03BC00F073
:1001B0007DF800000948804709480047FEE7FEE750
:1001C000FEE7FEE7FEE7FEE7FEE7FEE7FEE7FEE707
:1001D00004480549054A064B70470000051A000807
:1001E000ED000008C8000020C8060020C80200205A
:1001F000C80200204FF0000200B513469446964610
:10020000203922BFA0E80C50A0E80C50B1F1200129
:10021000BFF4F7AF090728BFA0E80C5048BF0CC0D7
:100220005DF804EB890028BF40F8042B08BF704735
:1002300048BF20F8022B11F0804F18BF00F8012BA7
:100240007047704770477047754600F02BF8AE4610
:1002500005006946534620F00700854618B020B5D2
:10026000FFF7B6FFBDE820404FF000064FF0000753
:100270004FF000084FF0000BAC46ACE8C009ACE80A
:10028000C009ACE8C009ACE8C00921F007018D46FF
:10029000704710B50446AFF300802046BDE810401B
:1002A000FFF781BF0048704718000020014918205F
:1002B000ABBEFEE72600020070470000FEE700002C
:1002C00070470000B0B5044600F01EF9054640F244
:1002D0000000C2F200000078611C18BF044400BF97
:1002E00000F012F9401BA042FAD3B0BD2DE9F04F47
:1002F00082B00E68002E00F0FD8041F20042C4F290
:100300000102042340F2004E904208BF03234FF63F
:10031000FF7CC4F2010E009300240123C1F2100CF3
:100320004FF0000A4FF000094BE000BF41F200021D
:10033000C4F20102009F904208BF022704F00C03A0
:100340000F229A402BEA020207FA03F34FEA9A05BA
:100350001A4346F825204E6840F20C45F202DEF8BA
:10036000082054BF22EA080242EA0802C4F201054A
:10037000CEF808202A68B30254BF22EA080242EAF3
:1003800008022A60B303DEF8042054BF22EA080200
:1003900042EA0802F303CEF80420DEF800204FF012
:1003A000010354BF22EA080242EA0802CEF8002004
:1003B0000E680AF1010A36FA0AF204F1040400F0A8
:1003C000998003FA0AFB16EA0B08F1D04E686645DD
:1003D00012DC122E56D8DFE806F0350B4D49555584
:1003E000555555555555555555555545510000BF11
:1003F000D1F80C9046E000BF4FF6FF72C1F2210227
:1004000096420FDC0022C1F2110296421AD000225D
:10041000C1F21202964215D00022C1F22102964288
:1004200010D02FE00022C1F2220296420AD0002210
:10043000C1F23102964205D00022C1F23202964248
:1004400020D100BF8A684AB1012A14BFC0F814B095
:10045000C0F810B04FF0080914E000BF4FF00409D5
:1004600010E000BFCA6802F104090BE04FF0000978
:1004700008E000BFCA6802F1080903E0CA6802F197
:100480000C0900BF02462646B8F5807F24BF04321F
:10049000203E17680F25B54027EA050509FA06F63C
:1004A00035431560CA79D2067FF582AF41F2180351
:1004B000C4F202031A68AEF57E7642F001021A60B9
:1004C0001A6802F001020192019A2AF0030256F81A
:1004D00002B040F60002C4F20102904208D040F699
:1004E0000042C4F2010290427FF420AF012725E7C9
:1004F000002723E702B0BDE8F08F0000002A08BF04
:10050000090401617047000040F2C000C2F200001F
:100510000068704740F2000040F2C001C2F20000E3
:10052000C2F2000100780A681044086070470000B9
:1005300080B542F20000C4F20200016841F01001EF
:100540000160032000F07AF80F2000F005F800F0B9
:1005500027F8002080BD000070B540F20006C2F20E
:10056000000640F208013278C2F200014FF47A73BB
:100570000968B3FBF2F20446B1FBF2F1084600F061
:100580004BFB0F2C4FF0010508D838B94FF0FF3066
:1005900021460022002500F025F87460284670BD31
:1005A00082B041F21800C4F202000168022241F058
:1005B00001010160016801F00101019101994168A7
:1005C00041F080514160406800F0805000900098F8
:1005D0000420C4F20100016862F31A61016002B0F4
:1005E0007047000010B54EF60C5CCEF2000CDCF843
:1005F0000030C3F3022E8EF00704042C28BF04241D
:10060000BEF103034FF0FF3E0EFA04F438BF00239F
:10061000A14399400EFA03F39A43114300F00F02ED
:1006200000F160430901043A03F564436244002881
:1006300048BF02F10C03197010BD00004EF60C51BA
:10064000CEF200010A684FF6FF031A4060F30A2257
:1006500042F0806040F0FD7008607047002804BFE1
:10066000012070472DE9F04381B042F20008C4F246
:1006700002080446D8F800000D4600F00700814249
:100680000CD9D8F8000020F007002843C8F8000073
:10069000D8F8000000F00700A8426CD1206841F2B1
:1006A00004098107C4F2020917D5410705D5D9F815
:1006B000001041F4E061C9F80010010705D5D9F830
:1006C000001041F46051C9F80010D9F80010A26878
:1006D00021F0F0011143C9F80010C00742D1D8F849
:1006E000000000F0070085420CD2D8F8000020F08E
:1006F00007002843C8F80000D8F8000000F0070001
:10070000A84238D12068410707D5D9F80010E2681F
:1007100021F4E0611143C9F80010000708D5D9F8A9
:100720000000216920F4605040EAC100C9F80000CF
:10073000D9F8002002F00C00082841F20020C0F295
:100740007A004DD141F65A33C2F38341C0F600031B
:10075000595CD20338D440F60010C0F23D00484343
:100760003EE000BF606859F8041C022808D0012848
:1007700026D1890306D4012001B0BDE8F08300BF73
:100780008901F8D5D9F8001021F003010843C9F810
:100790000000FFF7B9FE064641F28837D9F800009D
:1007A000616800F00C00B0EB810F98D0FFF7ACFE51
:1007B000801BB842F2D9032001B0BDE8F08300BF2E
:1007C0008907D8D5DEE700BFD9F8002041F65833B5
:1007D000C2F34042C0F600039A5C4843B0FBF2F01B
:1007E000D9F8001041F64832C1F30311C0F60002F7
:1007F000515C40F2080220FA01F140F20400C2F21A
:1008000000000068C2F200021160FFF7A5FE0020A0
:1008100001B0BDE8F0830000002804BF012070474C
:100820002DE9F04182B00446007841F20006C0078D
:10083000C4F202060CD0706800F00C00042840F0EE
:1008400081803068800303D56068002800F046810D
:10085000207880071BD5706810F00C0F09D07068E5
:1008600000F00C00082840F087807068C00300F199
:1008700083803068800703D52069012840F02E81ED
:100880003068616920F0F80040EAC10030602078EB
:10089000000713D4207840072CD4E569002D00F020
:1008A0001881706800F00C00082840F0A780012D26
:1008B00040F00481012002B0BDE8F081A069002869
:1008C00000F084800020C4F242200121C0F880148E
:1008D000FFF71AFE054600BF706A800700F1B2807C
:1008E000FFF712FE401B0228F6D9032002B0BDE834
:1008F000F08100BFF0695FEAC00808D4F06940F0F9
:100900008050F061F06900F080500090009847F24C
:100910000007C4F200073868C00549D4386840F4BD
:1009200080703860FFF7F0FD054600BF3868C005ED
:100930003ED4FFF7E9FD401B6428F7D9032002B03D
:10094000BDE8F081706800F00C00082803D17068E1
:10095000C0033FF576AF61683068002900F00C8174
:10096000B1F5A02F00F00081B1F5803F40F01A8171
:1009700040F480301CE100BF2069002840F20000F4
:10098000C4F2422000F0888001210160FFF7BCFD25
:10099000054600BF306880073FF572AFFFF7B4FD32
:1009A000401B0228F6D9032002B0BDE8F08100BF49
:1009B000E168306A002900F09D80052900F09280EE
:1009C000012940F0AF8040F00100B1E00020C4F206
:1009D00042200021C0F88014FFF796FD054600BFB5
:1009E000706A80077FF556AFFFF78EFD401B022827
:1009F000F6D9032002B0BDE8F08100BF0027C4F2A1
:100A0000422700203866FFF77FFD022D05460DD1F5
:100A10003068800140F1DE80FFF776FD401B022840
:100A20004FF00300F4D902B0BDE8F08130688001D6
:100A30004FD5FFF769FD401B02284FF00300F5D9A1
:100A4000F1E700BF40F20800C2F20000006844F67F
:100A5000D351C1F26201A0FB0101480A019000BF1D
:100A600000BF0198411E002801913FF413AF00BF61
:100A70000198411E002801913FF40CAF00BF01987E
:100A8000411E002801913FF405AF00BF0198411EAF
:100A900000280191E4D1FDE600210160FFF734FD5B
:100AA000054600BF306880077FF5F1AEFFF72CFDEB
:100AB000401B02284FF00300F4D9B4E77068216AA4
:100AC00000F480328A4209D1616A00F470108842D1
:100AD00004D1002002B0BDE8F08100BF012002B0C7
:100AE000BDE8F08140F004003062306A40F001005F
:100AF0001EE000BF20F001003062306A20F00400E8
:100B00003062FFF701FD054641F28837306A800701
:100B100020D5FFF7F9FC401BB8424FF00300F5D990
:100B200081E700BF20F001003062306A20F004004D
:100B30003062FFF7E9FC054641F28837306A8007EA
:100B400008D4FFF7E1FC401BB842F7D9032002B0FC
:100B5000BDE8F081B8F1000F3FF59FAEF06920F0DD
:100B60008050F06199E600BF40F48020306030682A
:100B700040F480301CE000BF20F4803030603068EA
:100B800020F480203060FFF7BFFC0546306880030A
:100B90007FF55EAEFFF7B8FC401B64284FF0030002
:100BA000F4D940E720F480303060306820F48020B1
:100BB0003060FFF7A9FC0546306880033FF548AE7A
:100BC000FFF7A2FC401B6428F6D9032002B0BDE861
:100BD000F08100BF206AB0F5803F05D17168A2683E
:100BE00021F40031114371607168626A21F474115B
:100BF00011430843706001203866FFF785FC044606
:100C0000306880013FF565AFFFF77EFC001B0228CE
:100C10004FF00300F4D906E7411E0020B0EB116F3E
:100C20001CBF012070474EF21002CEF2000251604C
:100C30004EF62351CEF20001F0230B700721906095
:100C400011607047FEE70000B0B504462820FFF7AA
:100C500039FB606AE18F0022FFF750FCA06AB4F80C
:100C600040100022FFF74AFC40F27805C2F200056E
:100C7000287828B12046032100F07CFE48E000BF20
:100C80002069A18E0022FFF739FC6069E18E002205
:100C9000FFF734FCA069218F0022FFF72FFCE069E9
:100CA000618F0022FFF72AFC206AA18F0122FFF743
:100CB00025FC0120FFF706FB206AA18F0022FFF729
:100CC0001DFC0120FFF7FEFA2069A18E0122FFF72B
:100CD00015FC6069E18E0122FFF710FCA069218FED
:100CE0000022FFF70BFCE069618F0022FFF706FC92
:100CF000206AA18F0122FFF701FC0120FFF7E2FA31
:100D0000206AA18F0022FFF7F9FB0120FFF7DAFA32
:100D10000520FFF7D7FA606AE18F0022FFF7EEFBAC
:100D2000A06AB4F840100022FFF7E8FB287828B149
:100D30002046032100F01EFE48E000BF2069A18E7E
:100D40000022FFF7DBFB6069E18E0022FFF7D6FB94
:100D5000A069218F0022FFF7D1FBE069618F00229B
:100D6000FFF7CCFB206AA18F0122FFF7C7FB012010
:100D7000FFF7A8FA206AA18F0022FFF7BFFB01202E
:100D8000FFF7A0FA2069A18E0122FFF7B7FB606987
:100D9000E18E0122FFF7B2FBA069218F0022FFF74D
:100DA000ADFBE069618F0022FFF7A8FB206AA18FED
:100DB0000122FFF7A3FB0120FFF784FA206AA18F2D
:100DC0000022FFF79BFB0120FFF77CFA0120FFF7D1
:100DD00079FA606AE18F0022FFF790FBA06AB4F80D
:100DE00040100022FFF78AFB287828B12046032113
:100DF00000F0C0FD48E000BF2069A18E0022FFF78F
:100E00007DFB6069E18E0022FFF778FBA069218FEE
:100E10000022FFF773FBE069618F0022FFF76EFB92
:100E2000206AA18F0122FFF769FB0120FFF74AFA30
:100E3000206AA18F0022FFF761FB0120FFF742FA31
:100E40002069A18E0122FFF759FB6069E18E012222
:100E5000FFF754FBA069218F0022FFF74FFBE069E9
:100E6000618F0022FFF74AFB206AA18F0122FFF762
:100E700045FB0120FFF726FA206AA18F0022FFF729
:100E80003DFB0120FFF71EFA606AE18F0022FFF7A9
:100E900035FBA06AB4F840100022FFF72FFB28783A
:100EA00020B12046022100F065FD47E02069A18EB7
:100EB0000022FFF723FB6069E18E0022FFF71EFB93
:100EC000A069218F0022FFF719FBE069618F0022E2
:100ED000FFF714FB206AA18F0122FFF70FFB01200F
:100EE000FFF7F0F9206AA18F0022FFF707FB01202E
:100EF000FFF7E8F92069A18E0022FFF7FFFA606989
:100F0000E18E0122FFF7FAFAA069218F0022FFF794
:100F1000F5FAE069618F0022FFF7F0FA206AA18FED
:100F20000122FFF7EBFA0120FFF7CCF9206AA18F2D
:100F30000022FFF7E3FA0120FFF7C4F9606AE18FAE
:100F40000022FFF7DBFAA06AB4F840100022FFF796
:100F5000D5FA287820B12046282100F00BFD47E083
:100F60002069A18E0022FFF7C9FA6069E18E012293
:100F7000FFF7C4FAA069218F0022FFF7BFFAE069EA
:100F8000618F0022FFF7BAFA206AA18F0122FFF7D2
:100F9000B5FA0120FFF796F9206AA18F0022FFF72A
:100FA000ADFA0120FFF78EF92069A18E0022FFF72C
:100FB000A5FA6069E18E0022FFF7A0FAA069218FEF
:100FC0000022FFF79BFAE069618F0122FFF796FA92
:100FD000206AA18F0122FFF791FA0120FFF772F931
:100FE000206AA18F0022FFF789FA0120FFF76AF932
:100FF000606AE18F0022FFF781FAA06AB4F840101E
:101000000022FFF77BFA287820B120460F2100F05C
:10101000B1FC47E02069A18E0022FFF76FFA6069FA
:10102000E18E0022FFF76AFAA069218F0022FFF704
:1010300065FAE069618F0022FFF760FA206AA18FEC
:101040000122FFF75BFA0120FFF73CF9206AA18F2C
:101050000022FFF753FA0120FFF734F92069A18E2F
:101060000122FFF74BFA6069E18E0122FFF746FA91
:10107000A069218F0122FFF741FAE069618F012207
:10108000FFF73CFA206AA18F0122FFF737FA01200F
:10109000FFF718F9206AA18F0022FFF72FFA01202D
:1010A000FFF710F9606AE18F0022FFF727FAA06AC4
:1010B000B4F840100022FFF721FA287820B120462A
:1010C000012100F057FC47E02069A18E0022FFF7C4
:1010D00015FA6069E18E0022FFF710FAA069218FEE
:1010E0000022FFF70BFAE069618F0022FFF706FA92
:1010F000206AA18F0122FFF701FA0120FFF7E2F831
:10110000206AA18F0022FFF7F9F90120FFF7DAF832
:101110002069A18E0122FFF7F1F96069E18E0022BA
:10112000FFF7ECF9A069218F0022FFF7E7F9E069EA
:10113000618F0022FFF7E2F9206AA18F0122FFF7F9
:10114000DDF90120FFF7BEF8206AA18F0022FFF72A
:10115000D5F90120FFF7B6F8606AE18F0022FFF7AA
:10116000CDF9A06AB4F840100022FFF7C7F928783B
:1011700030B120460621BDE8B04000F0FBBB00BF07
:101180002069A18E0022FFF7B9F96069E18E002283
:10119000FFF7B4F9A069218F0022FFF7AFF9E069EA
:1011A000618F0022FFF7AAF9206AA18F0122FFF7C1
:1011B000A5F90120FFF786F8206AA18F0022FFF72A
:1011C0009DF90120FFF77EF82069A18E0022FFF72C
:1011D00095F96069E18E0122FFF790F9A069218FEE
:1011E0000122FFF78BF9E069618F0022FFF786F992
:1011F000206AA18F0122FFF781F90120FFF762F831
:10120000206AA18F0022FFF779F90120BDE8B040E4
:10121000FFF758B8B0B504462820FFF753F8606AC6
:10122000E18F0022FFF76AF9A06AB4F840100022AB
:10123000FFF764F940F27805C2F20005287828B17A
:101240002046302100F096FB48E000BF2069A18EC7
:101250000122FFF753F96069E18E0122FFF74EF991
:10126000A069218F0022FFF749F9E069618F002210
:10127000FFF744F9206AA18F0122FFF73FF901200F
:10128000FFF720F8206AA18F0022FFF737F901202D
:10129000FFF718F82069A18E0022FFF72FF9606987
:1012A000E18E0022FFF72AF9A069218F0022FFF7C3
:1012B00025F9E069618F0022FFF720F9206AA18FEC
:1012C0000122FFF71BF90120FEF7FCFF206AA18F26
:1012D0000022FFF713F90120FEF7F4FF0520FEF7C7
:1012E000F1FF606AE18F0022FFF708F9A06AB4F805
:1012F00040100022FFF702F9287828B1204630215B
:1013000000F038FB48E000BF2069A18E0122FFF702
:10131000F5F86069E18E0122FFF7F0F8A069218FEE
:101320000022FFF7EBF8E069618F0022FFF7E6F893
:10133000206AA18F0122FFF7E1F80120FEF7C2FF2A
:10134000206AA18F0022FFF7D9F80120FEF7BAFF2B
:101350002069A18E0022FFF7D1F86069E18E00229A
:10136000FFF7CCF8A069218F0022FFF7C7F8E069EA
:10137000618F0022FFF7C2F8206AA18F0122FFF7D8
:10138000BDF80120FEF79EFF206AA18F0022FFF723
:10139000B5F80120FEF796FF0120FEF793FF606A83
:1013A000E18F0022FFF7AAF8A06AB4F840100022EB
:1013B000FFF7A4F8287828B12046302100F0DAFAA7
:1013C00048E000BF2069A18E0122FFF797F860690D
:1013D000E18E0122FFF792F8A069218F0022FFF72A
:1013E0008DF8E069618F0022FFF788F8206AA18FED
:1013F0000122FFF783F80120FEF764FF206AA18F26
:101400000022FFF77BF80120FEF75CFF2069A18E28
:101410000022FFF773F86069E18E0022FFF76EF893
:10142000A069218F0022FFF769F8E069618F00222F
:10143000FFF764F8206AA18F0122FFF75FF801200F
:10144000FEF740FF206AA18F0022FFF757F8012026
:10145000FEF738FF606AE18F0022FFF74FF8A06ABD
:10146000B4F840100022FFF749F8287820B1204650
:10147000382100F07FFA47E02069A18E0122FFF7B2
:101480003DF86069E18E0122FFF738F8A069218FED
:101490000022FFF733F8E069618F0022FFF72EF892
:1014A000206AA18F0122FFF729F80120FEF70AFF29
:1014B000206AA18F0022FFF721F80120FEF702FF2A
:1014C0002069A18E0022FFF719F86069E18E0022E1
:1014D000FFF714F8A069218F0022FFF70FF8E069E9
:1014E000618F0122FFF70AF8206AA18F0122FFF71E
:1014F00005F80120FEF7E6FE206AA18F0022FEF724
:10150000FDFF0120FEF7DEFE606AE18F0022FEF79C
:10151000F5FFA06AB4F840100022FEF7EFFF28782C
:1015200020B120460F2100F025FA47E02069A18E66
:101530000022FEF7E3FF6069E18E0022FEF7DEFF86
:10154000A069218F0022FEF7D9FFE069618F002298
:10155000FEF7D4FF206AA18F0122FEF7CFFF012002
:10156000FEF7B0FE206AA18F0022FEF7C7FF012020
:10157000FEF7A8FE2069A18E0122FEF7BFFF606979
:10158000E18E0122FEF7BAFFA069218F0122FEF74A
:10159000B5FFE069618F0122FEF7B0FF206AA18FDD
:1015A0000122FEF7ABFF0120FEF78CFE206AA18F1F
:1015B0000022FEF7A3FF0120FEF784FE606AE18FA0
:1015C0000022FEF79BFFA06AB4F840100022FEF74D
:1015D00095FF287820B12046012100F0CBF947E0A3
:1015E0002069A18E0022FEF789FF6069E18E00224A
:1015F000FEF784FFA069218F0022FEF77FFFE069DC
:10160000618F0022FEF77AFF206AA18F0122FEF788
:1016100075FF0120FEF756FE206AA18F0022FEF71B
:101620006DFF0120FEF74EFE2069A18E0122FEF71C
:1016300065FF6069E18E0022FEF760FFA069218FDF
:101640000022FEF75BFFE069618F0022FEF756FF84
:10165000206AA18F0122FEF751FF0120FEF732FE22
:10166000206AA18F0022FEF749FF0120FEF72AFE23
:10167000606AE18F0022FEF741FFA06AB4F84010D3
:101680000022FEF73BFF287830B120460621BDE856
:10169000B04000F06FB900BF2069A18E0022FEF7B4
:1016A0002DFF6069E18E0022FEF728FFA069218FDF
:1016B0000022FEF723FFE069618F0022FEF71EFF84
:1016C000206AA18F0122FEF719FF0120FEF7FAFD23
:1016D000206AA18F0022FEF711FF0120FEF7F2FD24
:1016E0002069A18E0022FEF709FF6069E18E0122C8
:1016F000FEF704FFA069218F0122FEF7FFFEE069DB
:10170000618F0022FEF7FAFE206AA18F0122FEF708
:10171000F5FE0120FEF7D6FD206AA18F0022FEF71C
:10172000EDFE0120BDE8B040FEF7CCBD2DE9F0474D
:101730000546D00040F2780A88465FFA80F9002416
:10174000C2F2000A09E000BF2846314600F012F953
:101750000134082C08BFBDE8F087686AE98F09EBFF
:101760000406002246F04007FEF7C8FEA86AB5F856
:1017700040100022FEF7C2FE9AF80000F9B218B13C
:10178000284600F0F7F808E00909284600F0C4F8F8
:1017900006F00F01284600F0BFF8686AE98F18F8D4
:1017A00004600122FEF7AAFEA86AB5F840100022E4
:1017B000FEF7A4FE9AF800000028C5D1310928469A
:1017C00000F0AAF806F00F01284600F0A5F8BFE7E0
:1017D00070B504461646E28F406A0D461146002257
:1017E000FEF78CFEA06AB4F840100022FEF786FED9
:1017F00040F27800C2F2000000784EB10028A5F156
:1018000040000BD0C1B22046BDE8704000F0B2B835
:101810006FF07F01002885EA0100F3D1C0B2010911
:10182000204600F079F805F00F012046BDE8704031
:1018300000F072B841B140F27801C2F20001012219
:101840000A70FFF7E7BC00BF40F27801C2F2000166
:1018500000220A70FFF7F8B9F0B581B00F784FB3E6
:1018600040F2780604464D1CC2F2000606E000BFB6
:10187000204600F07FF815F8017BDFB1606AE18F48
:101880000122FEF73BFEA06AB4F840100022FEF7EA
:1018900035FE3078F9B20028EAD10909204600F077
:1018A0003BF807F00F01204600F036F815F8017BF1
:1018B000002FE3D101B0F0BDB0B50446E28F406A1D
:1018C0000D4611460122FEF719FEA06AB4F8401039
:1018D0000022FEF713FE40F27800C2F2000000780A
:1018E00030B120462946BDE8B04000F043B800BF03
:1018F0002909204600F010F805F00F012046BDE848
:10190000B04000F009B80000FEE70000FEE700006C
:101910007047000070470000B0B50446A38E006910
:101920000D4601F001021946FEF7E8FD6069E18EFF
:10193000C5F34002FEF7E2FDA069218FC5F38002E6
:10194000FEF7DCFDE069618FC5F3C002FEF7D6FD4E
:10195000206AA18F0122FEF7D1FD0120FEF7B2FC23
:10196000206AA18F0022FEF7C9FD0120BDE8B0402A
:10197000FEF7A8BCB0B50446A38D00680D4601F083
:1019800001021946FEF7BAFD6068E18DC5F3400219
:10199000FEF7B4FDA068218EC5F38002FEF7AEFD10
:1019A000E068618EC5F3C002FEF7A8FD2069A18E34
:1019B000C5F30012FEF7A2FD6069E18EC5F3401287
:1019C000FEF79CFDA069218FC5F38012FEF796FDFE
:1019D000E069618FEA09FEF791FD206AA18F01227B
:1019E000FEF78CFD0120FEF76DFC206AA18F00221E
:1019F000FEF784FD0120BDE8B040FEF763BC0000A7
:101A0000FEF788BD70470000FEE7000090B0FEF7CB
:101A10008FFD06AC201D2421FEF7ECFB0220069072
:101A200001200A9010200B90002520460D95FEF70E
:101A3000F3FE28B1EFF3108072B600BFFEE700BFDF
:101A40000F20CDE9010501A80021CDE90355059539
:101A5000FEF704FE20B1EFF3108072B6FEE700BF80
:101A6000002441F21800CDE90844CDE90644C4F24F
:101A70000200016840F6000541F0040101600068C1
:101A8000C4F2010500F0040001900198284640F2DC
:101A9000FF71002240F2FF76FEF730FD0120CDE914
:101AA00007040220099006A928460696FEF71EFCA8
:101AB00040F27C040120C2F20004C0F202000421C2
:101AC000C0F208011022402340F20046C4E90A5047
:101AD00004F13000C0F22002C0F28003C0F2002600
:101AE0004EC04FF48070A4F8400020460021C4E9A5
:101AF0000055C4E90255C4E90455C4E90655C4E9D2
:101B00000855FFF797FE40F20C01C2F20001204693
:101B10000022FFF70BFE204600210022FFF758FEAF
:101B200020460021FFF7C8FE04A12046FFF794FEDF
:101B300020460021FFF7C0FEFEE700BF5068617439
:101B4000204C75750000000000000000000000003F
:101B5000010203040607080901020203040506073F
:101B600008090A0B0C0D0E0F10100000901B000846
:101B7000000000201800000050010008A81B000809
:101B800018000020B00600007001000800000000EE
:101B9000010000001000000000127A000A1F151F4B
:081BA0001F0E0400000000000C
:04000005080000ED02
:00000001FF
